:100000000C9463000C948B000C948B000C948B006C
:100010000C948B000C948B000C948B000C948B0034
:100020000C948B000C948B000C948B000C948B0024
:100030000C948B000C948B000C948B000C948B0014
:100040000C94CC020C948B000C943C030C9416037F
:100050000C948B000C948B000C948B000C948B00F4
:100060000C948B000C948B006364696E6F707375D5
:1000700078585B0000000000240027002A000000E0
:100080000000250028002B000404040404040404D8
:100090000202020202020303030303030102040833
:1000A00010204080010204081020010204081020E2
:1000B0000000000800020100000304070000000027
:1000C00000000000790511241FBECFEFD8E0DEBF8D
:1000D000CDBF11E0A0E0B1E0E0E9F9E102C0059098
:1000E0000D92AE33B107D9F721E0AEE3B1E001C024
:1000F0001D92AC3EB207E1F710E0C3E6D0E004C0C9
:100100002197FE010E94A605C236D107C9F70E94B9
:100110006E030C94C60C0C940000E2EBF0E024910A
:10012000EEE9F0E09491EAE8F0E0E491EE23C9F022
:10013000222339F0233001F1A8F4213019F12230C3
:1001400029F1F0E0EE0FFF1FE258FF4FA591B491A7
:100150002FB7F894EC91811126C090959E239C9323
:100160002FBF08952730A9F02830C9F0243049F76F
:10017000209180002F7D03C0209180002F77209355
:100180008000DFCF24B52F7724BDDBCF24B52F7DB2
:10019000FBCF2091B0002F772093B000D2CF2091D9
:1001A000B0002F7DF9CF9E2BDACF4F925F926F92E6
:1001B0007F928F929F92AF92BF92CF92DF92EF92F7
:1001C000FF921F93CF93DF93CDB7DEB7D4500FB616
:1001D000F894DEBF0FBECDBFFE013196412C512CED
:1001E00032019F0173016201A8E0B0E046015701AE
:1001F00010E881229924AA24BB24CC0CDD1CEE1C1F
:10020000FF1C89288A288B2809F0C094119771F760
:10021000DD24EE24FF24C192D192E192F192AFEF5E
:100220004A1A5A0A6A0A7A0A411411E0510661040C
:100230007104C1F6FC01C12CD12C7601BFE24B2E1A
:10024000512C612C712CC416D506E606F706D1F0A8
:100250008191082E000C990BAA0BBB0B84259525C8
:10026000880F991F880F991FD901A80FB91F8C916A
:10027000482E512C712C612C8FEFC81AD80AE80A2D
:10028000F80AE1CFC301B2016095DC5F0FB6F894C4
:10029000DEBF0FBECDBFDF91CF911F91FF90EF90DA
:1002A000DF90CF90BF90AF909F908F907F906F9096
:1002B0005F904F9008953FB7F894809147019091D7
:1002C0004801A0914901B0914A0126B5A89B05C0FB
:1002D0002F3F19F00196A11DB11D3FBFBA2FA92FC5
:1002E000982F8827BC01CD01620F711D811D911DC2
:1002F00042E0660F771F881F991F4A95D1F708952E
:100300008F929F92AF92BF92CF92DF92EF92FF9225
:100310004B015C010E945B016B017C010E945B014F
:100320006C197D098E099F09683E7340810591050E
:10033000A8F321E0821A9108A108B10888EEC80E3E
:1003400083E0D81EE11CF11C81149104A104B104C6
:1003500029F7FF90EF90DF90CF90BF90AF909F90E4
:100360008F900895AF92BF92CF92DF92EF92FF925B
:100370000F931F93CF93DF936C017B018B01040FCD
:10038000151FEB015E01AE18BF08C017D10759F069
:100390006991D601ED91FC910190F081E02DC601AB
:1003A0000995892B79F7C501DF91CF911F910F91A5
:1003B000FF90EF90DF90CF90BF90AF900895FC0139
:1003C000538D448D252F30E0842F90E0821B930BBA
:1003D000541710F0CF96089501970895FC01918D60
:1003E000828D981761F0A28DAE0FBF2FB11D5D9663
:1003F0008C91928D9F5F9F73928F90E008958FEF05
:100400009FEF0895FC01918D828D981731F0828DB8
:10041000E80FF11D858D90E008958FEF9FEF08950F
:10042000FC01918D228D892F90E0805C9F4F821B73
:1004300091098F73992708958BE491E00E9410022F
:1004400021E0892B09F420E0822F089580E090E0DC
:10045000892B29F00E941C0281110C940000089540
:10046000FC01A48DA80FB92FB11DA35ABF4F2C9129
:10047000848D90E001968F739927848FA689B78920
:100480002C93A089B1898C91837080648C93938D17
:10049000848D981306C00288F389E02D80818F7DBA
:1004A00080830895EF92FF920F931F93CF93DF9372
:1004B000EC0181E0888F9B8D8C8D98131AC0E889A0
:1004C000F989808185FF15C09FB7F894EE89FF896F
:1004D0006083E889F98980818370806480839FBF0D
:1004E00081E090E0DF91CF911F910F91FF90EF900D
:1004F0000895F62E0B8D10E00F5F1F4F0F7311271D
:10050000E02E8C8D8E110CC00FB607FCFACFE88957
:10051000F989808185FFF5CFCE010E943002F1CFAD
:10052000EB8DEC0FFD2FF11DE35AFF4FF0829FB7CB
:10053000F8940B8FEA89FB8980818062CFCFCF93BB
:10054000DF93EC01888D8823B9F0AA89BB89E889FB
:10055000F9898C9185FD03C0808186FD0DC00FB6A1
:1005600007FCF7CF8C9185FFF2CF808185FFEDCF1F
:10057000CE010E943002E9CFDF91CF910895FC01B6
:1005800001900020E9F73197AF01481B590BBC01DE
:100590008BE491E00C94B2011F920F920FB60F9270
:1005A00011242F933F938F939F93AF93BF93809189
:1005B000430190914401A0914501B09146013091D1
:1005C000420123E0230F2D3758F50196A11DB11DDF
:1005D000209342018093430190934401A0934501ED
:1005E000B09346018091470190914801A091490143
:1005F000B0914A010196A11DB11D809347019093CE
:100600004801A0934901B0934A01BF91AF919F91D6
:100610008F913F912F910F900FBE0F901F901895C3
:1006200026E8230F0296A11DB11DD2CF1F920F9273
:100630000FB60F9211242F933F934F935F936F93B5
:100640007F938F939F93AF93BF93EF93FF938BE42D
:1006500091E00E943002FF91EF91BF91AF919F9185
:100660008F917F916F915F914F913F912F910F905B
:100670000FBE0F901F9018951F920F920FB60F92FA
:1006800011242F938F939F93EF93FF93E0915B013E
:10069000F0915C018081E0916101F091620182FD45
:1006A0001BC09081809164018F5F8F7320916501E1
:1006B000821741F0E0916401F0E0E55BFE4F958F19
:1006C00080936401FF91EF919F918F912F910F90F3
:1006D0000FBE0F901F9018958081F4CFCF93DF93BA
:1006E000CDB7DEB7A4970FB6F894DEBF0FBECDBF6F
:1006F000789484B5826084BD84B5816084BD85B5FD
:10070000826085BD85B5816085BD80916E00816008
:1007100080936E00109281008091810082608093AE
:1007200081008091810081608093810080918000B0
:100730008160809380008091B10084608093B100DB
:100740008091B00081608093B00080917A008460D5
:1007500080937A0080917A00826080937A00809101
:100760007A00816080937A0080917A00806880931B
:100770007A001092C100E0915B01F0915C0182E08F
:100780008083E0915701F09158011082E091590166
:10079000F0915A018AE8808310926301E0915F0131
:1007A000F091600186E08083E0915D01F0915E014F
:1007B000808180618083E0915D01F0915E018081A4
:1007C00088608083E0915D01F0915E0180818068A6
:1007D0008083E0915D01F0915E0180818F7D808357
:1007E000EEE9F0E02491EAE8F0E08491882399F0C2
:1007F00090E0880F991FFC01EC58FF4FA591B49130
:10080000FC01E258FF4F859194918FB7F894EC91D9
:10081000E22BEC938FBF80E00E948D00CE01019609
:100820007C0198E1492E91E0592E8E010B5E1F4FFD
:1008300028E5322E30E2C32E31E0D32E80E0682E40
:1008400080E0782E10924101109240018BE491E0FB
:100850000E941002892B09F43AC182E390E00E94C1
:10086000AC0590933F0180933E0165E070E080E02D
:1008700090E00E9480018BE491E00E941002A09021
:100880004001B090410180903E0190903F01892B42
:10089000B1F18BE491E00E94EE01F401EA0DFB1D41
:1008A0008B3321F510821092410110924001FF928A
:1008B000EF925F924F929F928F920E94FD060F904F
:1008C0000F900F900F900F900F9089819A8188352B
:1008D000910589F28BE491E00E941002892B09F4C2
:1008E000F6C08BE491E00E94EE01F4CF9FEFA91ACD
:1008F000B90AB0924101A09240018083BCCF1A1482
:100900001B040CF0E4C0C501019690934101809353
:100910004001F401EA0DFB1D1082181619060CF0B7
:10092000D6C06BE171E0C4010E94D106892B09F0A9
:10093000CEC080E1EEE2F1E0D80101900D928A95FF
:10094000E1F781E00E948D004FE050E060E070E050
:10095000C8010E94D500A62E972E882E292E6CE362
:1009600070E080E090E00E9480011F930F932F922F
:100970008F929F92AF921F923F921F92BB24B3948B
:10098000BF92DF92CF92FF92EF920E94DA06C701E8
:100990000E94BF0262E370E080E090E00E9480016C
:1009A0008D8992E089278D8B1F930F932F928F92C1
:1009B0009F92AF921F923F921F92BF92DF92CF926F
:1009C000FF92EF920E94DA06C7010E94BF0262E323
:1009D00070E080E090E00E9480018D8992E089279C
:1009E0008D8BF80101900020E9F73297808198E023
:1009F000892780831F930F932F928F929F92AF929C
:100A00001F923F921F92BF92DF92CF92FF92EF927E
:100A10000E94DA060FB6F894DEBF0FBECDBFC70145
:100A20000E94BF0262E370E080E090E00E948001DB
:100A3000F80101900020E9F73297808198E089273A
:100A400080838F8998E889278F8B1F930F932F922C
:100A50008F929F92AF921F923F921F92BF92DF920E
:100A6000CF92FF92EF920E94DA06C7010E94BF0266
:100A700062E370E080E090E00E9480018F8998E856
:100A800089278F8B898D96E28927898F1F930F93F2
:100A90002F928F929F92AF921F923F921F92BF927E
:100AA000DF92CF92FF92EF920E94DA06C7010E9476
:100AB000BF026CE370E080E090E00E94800180E083
:100AC0000E948D000FB6F894DEBF0FBECDBF80919F
:100AD0003E0190913F010E9448066114710409F49F
:100AE000B1CE0E941C02882309F4ACCE0E94000003
:100AF000A5CEEBE4F1E01382128288EE93E0A0E051
:100B0000B0E084839583A683B7838AE091E09183E4
:100B1000808385EC90E09587848784EC90E09787CC
:100B2000868780EC90E0918B808B81EC90E0938BBA
:100B3000828B82EC90E0958B848B86EC90E0978B97
:100B4000868B118E128E138E148E0895EE0FFF1F5A
:100B50000590F491E02D09940F931F93CF93DF93A9
:100B60008230910510F482E090E0E091EA01F0918A
:100B7000EB0130E020E0B0E0A0E0309799F42115DF
:100B8000310509F44AC0281B390B24303105D8F54A
:100B90008A819B816115710589F1FB0193838283B1
:100BA000FE0111C04081518102811381481759070C
:100BB000E0F04817590799F4109761F012960C93DA
:100BC000129713961C933296CF01DF91CF911F910C
:100BD0000F9108950093EA011093EB01F4CF2115D2
:100BE000310551F04217530738F0A901DB019A0192
:100BF000BD01DF01F801C1CFEF01F9CF9093EB0107
:100C00008093EA01CDCFFE01E20FF31F8193919310
:100C10002250310939832883D7CF2091E8013091C0
:100C2000E901232B41F4209102013091030130931B
:100C3000E9012093E8012091000130910101211583
:100C4000310541F42DB73EB74091040150910501A3
:100C5000241B350BE091E801F091E901E217F3075D
:100C6000A0F42E1B3F0B2817390778F0AC014E5F1C
:100C70005F4F2417350748F04E0F5F1F5093E9016F
:100C80004093E801819391939FCFF0E0E0E09CCF07
:100C9000CF93DF930097E9F0FC0132971382128221
:100CA000A091EA01B091EB01ED0130E020E0109756
:100CB000A1F420813181820F931F2091E8013091AE
:100CC000E9012817390709F061C0F093E901E093C1
:100CD000E801DF91CF910895EA01CE17DF07E8F52B
:100CE0004A815B819E0141155105B1F7E901FB8302
:100CF000EA8349915991C40FD51FEC17FD0761F4A0
:100D0000808191810296840F951FE90199838883E0
:100D1000828193819B838A83F0E0E0E012968D913B
:100D20009C9113970097B9F52D913C911197CD01A6
:100D30000296820F931F2091E8013091E901281754
:100D4000390739F6309751F51092EB011092EA010C
:100D5000B093E901A093E801BCCFD383C283408163
:100D60005181840F951FC817D90761F44E5F5F4FFB
:100D700088819981480F591F518340838A819B81C3
:100D8000938382832115310509F0B0CFF093EB01F5
:100D9000E093EA019ECFFD01DC01C0CF13821282F5
:100DA000D7CFFB01DC018D91019080190110D9F39F
:100DB000990B0895AEE0B0E0E0EEF6E00C949D0CE7
:100DC0000D891E8986E08C831A8309838FEF9FE744
:100DD0009E838D83AE01475E5F4F6F89788DCE0114
:100DE00001960E9416072F813885020F131FF80104
:100DF00010822E96E4E00C94B90CAEE0B0E0E3E093
:100E0000F7E00C949F0C85E08C838B899C899A83F6
:100E10008983AE01495E5F4F6D897E89CE0101965F
:100E20000E947B0A2E96E2E00C94BB0CABE0B0E093
:100E3000ECE1F7E00C948F0C7C013B018A01FC0192
:100E400017821682838181FFC8C1CE0101965C01A1
:100E5000F7019381F30193FD859193FF81913F0108
:100E6000882309F453C1853239F493FD859193FFAA
:100E700081913F01853229F4B70190E00E94E60B91
:100E8000E7CF912C212C312CFFE1F31538F08B3278
:100E900011F190F4803209F1833229F137FC3CC022
:100EA00020ED280F2A3050F536FE20C08AE0989EAB
:100EB000200D1124922E06C08D3291F0803371F7EF
:100EC000689430F8F30193FD859193FF81913F0180
:100ED0008111DACF21C0689431F8689432F8F2CFEA
:100EE000689433F8EFCF689434F8ECCFEAE02E9EA4
:100EF000200D1124222E689435F8E4CF8E3229F487
:100F000036FC04C1689436F8DDCF8C3619F4689449
:100F100037F8D8CF8836B1F2982F9F7D955493300B
:100F2000E0F08336A1F18337C1F1833509F063C066
:100F30002801F2E04F0E511CF801C080D180692DCC
:100F400070E036FC02C06FEF7FEFC6010E94940B89
:100F50004C01689437F882010AC00C5F1F4FFFE311
:100F6000F98388248394912C6501E89437F833FE43
:100F70002DC0522C8114910471F5552009F468CFCD
:100F8000B70180E290E00E94E60B5A94F6CFF80198
:100F9000808189830E5F1F4FE4CF2801F2E04F0E5E
:100FA000511CF801C080D180692D70E036FC02C070
:100FB0006FEF7FEFC6010E949F0B4C018201D5CFDE
:100FC000B70180E290E00E94E60B2A9428141904ED
:100FD00009F0B0F7CECFF60137FC859137FE81914D
:100FE0006F01B70190E00E94E60B51105A94F1E0B6
:100FF0008F1A9108BFCF843619F0893609F077C06F
:10100000F80137FE6BC060817181828193810C5F32
:101010001F4FF32DFF763F2E97FF09C090958095C7
:10102000709561957F4F8F4F9F4F689437F82AE0F6
:1010300030E0A5010E942E0CC82ECA188C2C432C1F
:1010400036FE0CC0E89440F8C91440F434FE05C0E4
:1010500032FC03C0F32DFE7E4F2E892C44FE95C03A
:10106000FE01EC0DF11D8081803309F087C0242D35
:10107000297E422E842D8870582E43FC95C040FE58
:101080008FC09C2C821418F42C0C922C981844FEBF
:1010900091C0B70180E390E00E94E60B42FE09C0D8
:1010A00088E790E041FE02C088E590E0B7010E9429
:1010B000E60BC91408F48AC0CA94D12C9FEFC91A50
:1010C000D90ACA0CDB1CF60182916F01B70190E0CE
:1010D0000E94E60BAC14BD04B1F74FCF6081718163
:1010E000072E000C880B990B0E5F1F4F92CFD32C4D
:1010F000E894D4F82AE030E0853739F1232D297FB0
:10110000D22E8F3601F148F48835A9F0F701868197
:1011100097812B96E2E10C94AB0C803749F088372D
:10112000A9F7D4FE02C06894D2F820E130E00DC0E7
:101130006894D4F8F6CF34FE03C0822F8660D82E90
:1011400020E132E002C028E030E0F801D7FE0FC015
:1011500060817181828193810C5F1F4FA5010E9484
:101160002E0CC82ECA183D2CE89437F867CF608142
:10117000718190E080E00E5F1F4FF0CF42FC02C013
:10118000839478CF8394839475CF842D867809F4E3
:1011900071CFF6CFB70180E290E00E94E60B839416
:1011A0008214C0F3512C73CF522C5818821408F4B7
:1011B0006ECFF8CF842D867809F47BCF8BE241FE89
:1011C00080E247FC8DE2B70190E071CFB70180E388
:1011D00090E00E94E60B9A946CCF8FEF9FEF99CF2F
:1011E00020FD09C0FC0123FD05C022FF02C073835E
:1011F000628351834083089544FD17C046FD1DC09E
:10120000DB01FC01AA0FBB1FEE1FFF1F1094D1F7DB
:101210006A0F7B1F8E1F9F1F660F771F881F991FE6
:10122000620F711D811D911D089533E0660F771FB8
:10123000881F991F3150D1F7F3CF34E0F7CF0F93C8
:101240001F93CF93DF938C01C8010E94AA0BEC017E
:1012500097FD08C00E94800B892BB1F7B801CE0121
:101260000E94160CCE01DF91CF911F910F9108952E
:101270008F929F92AF92BF92EF92FF920F931F9324
:10128000CF93DF938C01D62F7A01B22E0E94AA0B46
:101290009C0133272B32310529F02D323105A9F479
:1012A0006894B7F8D15061F480E0DF91CF911F913D
:1012B0000F91FF90EF90BF90AF909F908F90089507
:1012C000C8010E94AA0B97FDEFCFCB2DCD7F2B2D10
:1012D0002073F9F48033E9F4AA24AA94AD0E89F0BE
:1012E000C8010E94AA0B97FD0CC0282F2F7D28351E
:1012F00061F4C264D25029F0C8010E94AA0B97FF82
:1013000008C0812C912C54011BC0B6FE2BC0C260BA
:10131000DA2D812C912C540120ED280F283028F152
:10132000C4FD09C02A3008F1C6FF05C02F7D3FEE7D
:10133000320F3630C8F0B8010E94160CC1FFB4CF8E
:10134000C7FF08C0B094A09490948094811C911C15
:10135000A11CB11C2C2FB501A401C7010E94F008EB
:1013600081E0A3CFC261D4CF27504C2FC501B40177
:101370000E94FC084B015C01C260D15009F3C80116
:101380000E94AA0B97FFC8CFD9CFA0E2B0E0EBEC48
:10139000F9E00C94940C5C01962E7A01CE01019632
:1013A0006C0180E2F60111928A95E9F7F501B381AB
:1013B000890130E020E0712C812CA0E041E050E078
:1013C000F801B3FD8591B3FF8191982F8F018111B1
:1013D00007C010E000E0C801A096EDE00C94B00C4E
:1013E0008E3519F42115310541F1A21713064CF47D
:1013F0008D3549F18D3229F4811006C088248394FB
:101400001DC0882009F464C0E92FE695E695E695AD
:10141000EC0DFD2DF11D892F8770BA0101C0660FFB
:101420008A95EAF78081682B6083791651F09715C9
:1014300010F49F5FE9CF9150E7CFA1E02F5F3F4FBE
:10144000BFCF812CFBCF882019F08E8180628E83E4
:10145000AA2359F0F6019E012F5D3F4F80818095B0
:1014600080833196E217F307C9F788248394C50176
:101470000E94AA0B97FD16C0E82FE695E695E69523
:10148000EC0DFD2DF11D208130E0AC01477055279A
:1014900002C0359527954A95E2F720FD06C0B501B3
:1014A0000E94160C882069F094CFE114F10429F011
:1014B000F7018083C70101967C019A94812C9110D9
:1014C000D6CFE114F10409F486CFF701108283CF5F
:1014D000E82FE695E695E695EC0DFD2DF11D982F8C
:1014E0009770BA0101C0660F9A95EAF79081692B4F
:1014F0006083782EA3CFB0E0A0E0E1E8FAE00C949E
:10150000920C6C01EB015A01FC0117821682512CDE
:10151000F601E380FE01E3FC8591E3FE8191182F43
:10152000EF018823E9F090E00E94800B892B21F0E5
:10153000C6010E941F09ECCF153241F4FE01E3FC05
:101540001591E3FE1191EF01153269F4C6010E9475
:10155000AA0B97FD8EC01817D9F2B6010E94160C7F
:10156000852D90E08AC000E01A3231F4E3FC159139
:10157000E3FE1191EF0101E0F12C20ED210F2A3063
:1015800048F101FF37C0FF2059F31836B1F11C367E
:1015900009F43DC0112321F3612F70E088E690E04B
:1015A0000E94890B892BE1F2912C812C00FD06C051
:1015B000F50180809180C50102965C011E3679F5A7
:1015C000F6014681578170E060E0202FC4010E943F
:1015D000F0089ECF02606F2D70E090E080E040E266
:1015E0000E94FC08F62EFE01E3FC1591E3FE11912A
:1015F000EF01C3CFFF24FA94C8CFFE01E3FC15919D
:10160000E3FE1191EF01183609F0C4CF08600460C1
:10161000FE01E3FC1591E3FE1191EF01BBCF133600
:10162000C1F401FD02C0FF24F394C6010E94AA0B7D
:1016300097FD1FC08114910429F0F4018083C40137
:1016400001964C01FA94F110F0CF00FD61CF539454
:101650005FCF1B35B9F49E01A4016F2DC6010E9416
:10166000C509EC01892B89F7F6018381807309F4A0
:1016700077CF8FEF9FEF511073CFCDB7DEB7EFE08D
:101680000C94AE0CC6010E941F0997FDF2CF1F36C5
:10169000A9F130F4143641F0193639F0006405C070
:1016A0001337B9F01537D1F70062202FA4016F2D41
:1016B000C6010E9438098111C8CFD6CF8114910488
:1016C00029F0F4016082C40101964C01FA94FF20D4
:1016D00071F0C6010E94AA0B3C0197FD08C00E9450
:1016E000800B892B59F3B601C3010E94160C81149B
:1016F000910409F4AACFF4011082A7CF0061D5CFDD
:1017000091110C948C0C803219F089508550C8F7D7
:101710000895FC010590061621F00020D9F7C001BC
:1017200008953197CF010895FC01059061507040F4
:101730000110D8F7809590958E0F9F1F0895FC019A
:101740006150704001900110D8F7809590958E0FF0
:101750009F1F0895CF93DF93EC012B8120FF1AC0C8
:1017600026FF0CC02F7B2B838E819F8101969F8348
:101770008E838A8190E0DF91CF91089522FF18C077
:10178000E881F9818081082E000C990B009729F4DB
:1017900020622B838FEF9FEFEECF3196F983E883A2
:1017A0002E813F812F5F3F4F3F832E839927E3CFC9
:1017B000EA85FB85099597FFF3CF2B81019621F0F0
:1017C00080E2822B8B83E6CF80E1FBCF0F931F93C8
:1017D000CF93DF93182F092FEB018B8181FD09C077
:1017E0001FEF0FEF812F902FDF91CF911F910F915E
:1017F000089582FF14C02E813F818C819D8128171E
:1018000039073CF4E881F981CF01019699838883F7
:1018100010838E819F8101969F838E83E3CFE8851D
:10182000F985812F0995892BA1F3DACFFB0123815B
:1018300020FF11C026FD0FC08F3F980771F08283F3
:101840002F7D2064238326813781215031093783FE
:101850002683992708958FEF9FEF0895FA01AA270D
:10186000283051F1203181F1E8946F936E7F6E5FE3
:101870007F4F8F4F9F4FAF4FB1E03ED0B4E03CD091
:10188000670F781F891F9A1FA11D680F791F8A1F74
:10189000911DA11D6A0F711D811D911DA11D20D0DB
:1018A00009F468943F912AE0269F11243019305D95
:1018B0003193DEF6CF010895462F4770405D419386
:1018C000B3E00FD0C9F7F6CF462F4F70405D4A33D3
:1018D00018F0495D31FD4052419302D0A9F7EACF9B
:1018E000B4E0A6959795879577956795BA95C9F7CA
:1018F00000976105710508959B01AC010A2E0694BD
:101900005795479537952795BA95C9F7620F731F75
:10191000841F951FA01D08959927882708952F9249
:101920003F924F925F926F927F928F929F92AF926F
:10193000BF92CF92DF92EF92FF920F931F93CF93BC
:10194000DF93CDB7DEB7CA1BDB0B0FB6F894DEBF53
:101950000FBECDBF09942A88398848885F846E8479
:101960007D848C849B84AA84B984C884DF80EE80C3
:10197000FD800C811B81AA81B981CE0FD11D0FB6CC
:10198000F894DEBF0FBECDBFED010895F894FFCFF0
:101990000000EC018000000000005202B201DF01F3
:1019A0009F021002EE01020225640047697665007D
:1019B00025643B25643A256C782125732A004475FB
:0E19C0006D696E20566F6C6F64796D797200E0
:107E0000112484B714BE81FFF0D085E080938100F7
:107E100082E08093C00088E18093C10086E0809377
:107E2000C20080E18093C4008EE0C9D0259A86E02C
:107E300020E33CEF91E0309385002093840096BBD3
:107E4000B09BFECF1D9AA8958150A9F7CC24DD24C4
:107E500088248394B5E0AB2EA1E19A2EF3E0BF2EE7
:107E6000A2D0813461F49FD0082FAFD0023811F036
:107E7000013811F484E001C083E08DD089C08234E0
:107E800011F484E103C0853419F485E0A6D080C0E4
:107E9000853579F488D0E82EFF2485D0082F10E0AE
:107EA000102F00270E291F29000F111F8ED06801E7
:107EB0006FC0863521F484E090D080E0DECF843638
:107EC00009F040C070D06FD0082F6DD080E0C81688
:107ED00080E7D80618F4F601B7BEE895C0E0D1E017
:107EE00062D089930C17E1F7F0E0CF16F0E7DF06D8
:107EF00018F0F601B7BEE89568D007B600FCFDCFD4
:107F0000A601A0E0B1E02C9130E011968C91119780
:107F100090E0982F8827822B932B1296FA010C0160
:107F200087BEE89511244E5F5F4FF1E0A038BF0790
:107F300051F7F601A7BEE89507B600FCFDCF97BE46
:107F4000E89526C08437B1F42ED02DD0F82E2BD052
:107F50003CD0F601EF2C8F010F5F1F4F84911BD097
:107F6000EA94F801C1F70894C11CD11CFA94CF0C13
:107F7000D11C0EC0853739F428D08EE10CD085E9AC
:107F80000AD08FE07ACF813511F488E018D01DD067
:107F900080E101D065CF982F8091C00085FFFCCF94
:107FA0009093C60008958091C00087FFFCCF809118
:107FB000C00084FD01C0A8958091C6000895E0E648
:107FC000F0E098E1908380830895EDDF803219F02E
:107FD00088E0F5DFFFCF84E1DECF1F93182FE3DFCA
:107FE0001150E9F7F2DF1F91089580E0E8DFEE27F6
:047FF000FF270994CA
:027FFE00040479
:0400000300007E007B
:00000001FF
