:100000005CC100008AC1000088C1000086C10000F8
:1000100084C1000082C1000080C100007EC10000D8
:100020007CC100007AC1000078C1000076C10000E8
:1000300074C1000072C1000070C100006EC10000F8
:100040006CC1000095C5000068C1000066C10000D9
:1000500064C1000062C1000060C100003FC5000033
:100060005CC100005AC1000058C1000056C1000028
:1000700054C1000052C1000050C100004EC1000038
:100080004CC100004AC1000048C1000046C1000048
:1000900044C1000042C1000040C100003EC1000058
:1000A0003CC100003AC1000038C1000036C1000068
:1000B00034C1000032C1000030C100002EC1000078
:1000C0002CC100002AC1000028C1000026C1000088
:1000D00024C1000022C1000020C100001EC1000098
:1000E0001CC10000303000303100303200303300AD
:1000F00030340030350030360030370030380030D2
:1001000039003130003131003132003133003134C7
:1001100000313500313600313700313800313900D7
:1001200032300032310032320032330032340032A9
:100130003500323600323700323800323900333081
:1001400000333100333200333300333400333500B1
:10015000333600333700333800333900343000345D
:100160003100343200343300343400343500343656
:100170000034370034380034390035300035310070
:10018000353200353300353400353500353600352D
:1001900037003538003539000000210024002700E1
:1001A0002A002D0030003300010100000401070186
:1001B0000A0100002200250028002B002E0031003B
:1001C000340002010000050108010B0100002000BD
:1001D0002300260029002C002F003200000100001F
:1001E00003010601090105050505070508080808BA
:1001F000020202020A0A08080404040401010101BF
:1002000001010101030303030303030304070707B9
:100210000C0C0C0C0C0C0C0C02020202060606065E
:10022000060606060B0B0B0B0B0B0B0B010210202B
:10023000200808102040102040800201020108041C
:1002400002010102040810204080804020100804B0
:100250000201800402018040201008040201080409
:10026000020101020408102040800102040810204D
:10027000408000000A0B02090C0D0E080703040160
:10028000000000000000000000000000000000006E
:10029000000000000000000000000000000012113B
:1002A000100000000000000000000000000000003E
:1002B0000000000000000000F50A11241FBECFEF6F
:1002C000D1E2DEBFCDBF00E00CBF12E0A0E0B2E0A3
:1002D000E0E3F7E100E00BBF02C007900D92A83405
:1002E000B107D9F722E0A8E4B2E001C01D92A33F14
:1002F000B207E1F711E0CDE5D1E000E006C02197BB
:100300000109802FFE010E948E0BCC35D10780E0C1
:100310000807A9F71FD50C94960B72CE96E0899F1B
:10032000D0011124A459BD4F90967C936E935F9792
:1003300091E091969C939197E091D902F091DA0225
:100340009091D802992339F0309751F0811108C06B
:10035000809188021994309719F05C968C91FACFAD
:100360000895CF92DF92EF92FF920F931F9396E042
:10037000899FF0011124E459FD4F11A2278D30A16E
:100380002130310549F178F02230310509F44FC0B0
:100390002330310509F450C01F910F91FF90EF9069
:1003A000DF90CF9008956623B9F361E070E0B6DF87
:1003B0002FB7F8948091680290916902A0916A0227
:1003C000B0916B022FBF8093C4029093C502A0939B
:1003D000C602B093C702E0CF9FB7F894C0906802FE
:1003E000D0906902E0906A02F0906B029FBF00918A
:1003F000C4021091C5022091C6023091C702C01AF2
:10040000D10AE20AF30A0091D6021091D70230E035
:1004100020E00C151D052E053F0548F462E070E054
:100420001F910F91FF90EF90DF90CF9077CF6111E8
:10043000B3CF63E070E0F4CF70E060E0F1CF8150C3
:10044000823108F05AC0E82FF0E08827E55DFD4FC3
:100450008F4F0C948E0B4B024F023D02430247021A
:100460007D02520258025C02620266026A02700257
:1004700074027D0278027E028202809180008F7772
:10048000809380000895809180008F7DF9CF8091C6
:100490008000877FF5CF84B58F7784BD089584B5BC
:1004A0008F7DFBCF8091B0008F778093B00008954F
:1004B0008091B0008F7DF9CF809190008F778093ED
:1004C00090000895809190008F7DF9CF80919000E9
:1004D000877FF5CF8091A0008F778093A00008954B
:1004E0008091A0008F7DF9CF8091A000877FF5CF0C
:1004F000809120018F7780932001089580912001C1
:100500008F7DF9CF80912001877FF5CFCF93DF9347
:10051000282F30E0F901EE58FD4F8491F901E45D98
:10052000FD4FD491F901EA51FE4FC491CC2399F0CB
:10053000811185DFEC2FF0E0EE0FFF1FE453FE4F3B
:10054000A591B491EC91ED2381E090E009F480E075
:10055000DF91CF91089580E090E0FACF1F93CF9381
:10056000DF93282F30E0F901EE58FD4F8491F90117
:10057000E45DFD4FD491F901EA51FE4FC491CC23C3
:10058000A1F0162F81115BDFEC2FF0E0EE0FFF1FC3
:10059000EE54FE4FA591B4918FB7F894EC911111E0
:1005A00008C0D095DE23DC938FBFDF91CF911F91E0
:1005B0000895DE2BF8CFCF93DF9390E0FC01E45D4C
:1005C000FD4F24918A519E4FFC0184918823C9F0EC
:1005D00090E0880F991FFC01E856FE4FA591B49159
:1005E000FC01EE54FE4FC591D49161110DC09FB72F
:1005F000F8948C91209582238C93888128232883DA
:100600009FBFDF91CF910895623051F49FB7F89466
:100610003C91822F809583238C93E8812E2BEFCF02
:100620008FB7F894EC912E2B2C938FBFEACF3FB766
:10063000F8948091640290916502A0916602B09155
:10064000670226B5A89B05C02F3F19F00196A11D92
:10065000B11D3FBFBA2FA92F982F8827BC01CD010C
:10066000620F711D811D911D42E0660F771F881F6B
:10067000991F4A95D1F708958F929F92AF92BF929A
:10068000CF92DF92EF92FF924B015C01D0DF6B01C2
:100690007C01CDDF6C197D098E099F09683E73408E
:1006A00081059105B0F321E0821A9108A108B108F3
:1006B00088EEC80E83E0D81EE11CF11C8114910461
:1006C000A104B10431F7FF90EF90DF90CF90BF907D
:1006D000AF909F908F900895862F642F6CCF862FB8
:1006E000642F3CCF862F12CFAF92BF92CF92DF9272
:1006F000EF92FF920F931F93CF93DF936C017B01D7
:100700008B01040F151FEB015E01AE18BF08C01767
:10071000D10759F06991D601ED91FC910190F081DA
:10072000E02DC6011995892B79F7C501DF91CF918D
:100730001F910F91FF90EF90DF90CF90BF90AF90FF
:100740000895089590E080E008958F929F92AF926F
:10075000BF920F931F93CF93DF93CDB7DEB7A197CF
:100760000FB6F894DEBF0FBECDBF19A2423008F419
:100770004AE08E010F5D1F4F842E912CB12CA12CCD
:10078000A5019401A9D7E62FB901CA01EA303CF5C9
:10079000E05DD801EE938D01232B242B252B81F7CF
:1007A00090E080E0109761F0FD0101900020E9F7F2
:1007B0003197AF014A1B5B0BBD018BED92E094DFDB
:1007C000A1960FB6F894DEBF0FBECDBFDF91CF91DB
:1007D0001F910F91BF90AF909F908F900895E95C0B
:1007E000D8CFFC0101900020E9F73197AF01481BF9
:1007F000590BBC018BED92E077CFCF93DF93EC01E7
:1008000060E08E81ABDE61E08E81A8DE60E08E81EB
:10081000A5DE8BE891E00197F1F7DF91CF91089584
:10082000CF92DF92EF92FF920F931F93CF93DF93BC
:100830006C017C0187E0E80EF11CD0E0C0E0062FDF
:1008400010E0B8010C2E02C0759567950A94E2F786
:100850006170F70181917F0181DE2196C430D1055D
:1008600081F7C601DF91CF911F910F91FF90EF901B
:10087000DF90CF90C2CFCF92DF92EF92FF920F9393
:100880001F93CF93DF93EC01F62E642F8C8166DEED
:100890008D818F3F11F060E061DE0F2D10E08F85BC
:1008A00084FF23C06E0187E0C80ED11CF12CE12C1F
:1008B000B8010E2C02C0759567950A94E2F7617035
:1008C000F60181916F014ADEFFEFEF1AFF0A88E01F
:1008D000E816F10469F7CE01DF91CF911F910F91D6
:1008E000FF90EF90DF90CF9088CFB80184E07595AE
:1008F00067958A95E1F7CE0193DF6F2DCE01DF91E9
:10090000CF911F910F91FF90EF90DF90CF9088CF04
:1009100040E0682F8BED92E0AECF81E0F9DF8BE312
:100920009FE10197F1F70895CF93DF93823029F487
:100930009091EA0298609093EA028093EE021092FE
:10094000EF0280E48093F00280E18093F10280E581
:100950008093F20261E08091DF022DDE8091E0025F
:100960008F3F11F061E027DE61E08091E10223DE3C
:10097000CBEDD2E09E012B5D32408091EA0284FDF6
:100980000AC084E090E02196281739073CF461E022
:100990008E8111DEEFCF88E090E0F5CF8BE39DE014
:1009A0000197F1F760E08091DF02D8DD60E080918F
:1009B000E102D4DD8091E0028F3F11F060E0CEDDF6
:1009C0008091EA0284FD2CC063E08BED92E028DF89
:1009D000CBE4D6E4CE010197F1F763E08BED92E032
:1009E0001FDF2197F1F763E08BED92E019DF83E5DC
:1009F00092E00197F1F762E08BED92E011DF8091D8
:100A0000EA02806285DF84E08093EB028CE080DF85
:100A100084DF82E08093EC0286E0DF91CF9178CF93
:100A2000806276DF8BE496E40197F1F78091EA0229
:100A300080626EDF83E592E00197F1F78091EA0230
:100A4000806266DFDCCF9091EE02691710F06FEFE5
:100A5000690FE62FF0E0E552FD4F9489890F806819
:100A600057CF41E008DF81E090E00895CF92DF9218
:100A7000EF92FF926C01990FEE08FF08F7FE14C089
:100A800041E06DE28BED92E0F6DE66277727CB0141
:100A90006C197D098E099F094AE057DE0196FF9087
:100AA000EF90DF90CF9008954AE0C701B601FF9024
:100AB000EF90DF90CF9049CECF93DF93EC01FC0114
:100AC000649141E08BED92E0D6DEFE0131966491B7
:100AD00041E08BED92E0DF91CF91CDCE1F920F924E
:100AE0000FB60F9211242F933F938F939F93AF9341
:100AF000BF938091680290916902A0916A02B091BF
:100B00006B023091630223E0230F2D3758F50196D5
:100B1000A11DB11D20936302809368029093690226
:100B2000A0936A02B0936B02809164029091650277
:100B3000A0916602B09167020196A11DB11D80933C
:100B4000640290936502A0936602B0936702BF911E
:100B5000AF919F918F913F912F910F900FBE0F906A
:100B60001F90189526E8230F0296A11DB11DD2CF24
:100B70001F920F920FB60F9211240BB60F922F9364
:100B80003F934F935F936F937F938F939F93AF9315
:100B9000BF93CF93DF93EF93FF938091480290919F
:100BA000490201968C33910509F481C09093490262
:100BB0008093480280915C0290915D02892B79F5C7
:100BC00060E083E040DF2091560230915702C90176
:100BD000880F991F820F931F8C519F4F6DDF6AE31F
:100BE0008BED92E03EDF2091540230915502C90115
:100BF000880F991F820F931F8C519F4F5DDF6AE30F
:100C00008BED92E02EDF2091480230914902C9011C
:100C1000880F991F820F931F8C519F4F4DDF80913A
:100C20004C0290914D020197F9F460E083E00BDFF4
:100C30002091500230915102C901880F991F820FF3
:100C4000931F8C519F4F38DF6AE38BED92E009DFF1
:100C500020914E0230914F02C901880F991F820FD7
:100C6000931F8C519F4F28DFC0914A02D0914B02B5
:100C7000209709F043C061E080E0E5DE60E28BEDA3
:100C800092E0EFDEFF91EF91DF91CF91BF91AF91B5
:100C90009F918F917F916F915F914F913F912F9194
:100CA0000F900BBE0F900FBE0F901F9018951092D3
:100CB0004902109248028091540290915502019687
:100CC0008C33910529F0909355028093540272CF92
:100CD0001092550210925402809156029091570240
:100CE00001968831910529F090935702809356021E
:100CF00061CF10925702109256025CCFC130D105DD
:100D000009F661E080E09FDE61E48BED92E0A9DE10
:100D100020914E0230914F028091540290915502E1
:100D20002817390709F0AECF2091500230915102B7
:100D300080915602909157022817390709F0A2CFE7
:100D4000D0936102C093600210924B0210924A024B
:100D5000E4DD98CF789484B5826084BD84B58160E9
:100D600084BD85B5826085BD85B5816085BD809176
:100D70006E00816080936E001092810080918100EE
:100D800082608093810080918100816080938100E6
:100D9000809180008160809380008091B1008460A8
:100DA0008093B1008091B00081608093B000809109
:100DB0009100826080939100809191008160809386
:100DC0009100809190008160809390008091A100BB
:100DD00082608093A1008091A10081608093A10036
:100DE0008091A00081608093A000809121018260A9
:100DF0008093210180912101816080932101809164
:100E0000200181608093200180917A00846080932A
:100E10007A0080917A00826080937A0080917A00D3
:100E2000816080937A0080917A00806880937A0054
:100E30001092C100F89480E9809380008091810035
:100E4000886080938100809181008160809381001F
:100E50008091810084608093810082E080936F00A4
:100E600088E09DE3909389008093880061E086E1AB
:100E7000A2DB60E086E172DB82E056DD789456E02A
:100E8000452EC1E0D0E062E0C62ED12C3AE0632EC0
:100E900040E0242E40E0342E80916202882359F0F5
:100EA00061E086E15BDB64E670E080E090E0E4DB3B
:100EB00060E086E153DB80916002909161020197CE
:100EC00079F561E086E14ADB64EF71E080E090E073
:100ED000D3DB60E086E142DB68EC70E080E090E02C
:100EE000CBDB61E086E13ADB64EF71E080E090E02B
:100EF000C3DB60E086E132DB68EC70E080E090E02C
:100F0000BBDB61E086E12ADB64EF71E080E090E02A
:100F1000B3DB60E086E122DB109261021092600296
:100F200081E08093D8028FB7F89440916802509185
:100F3000690260916A0270916B028FBF8091C80252
:100F40009091C902A091CA02B091CB02481B590BE3
:100F50006A0B7B0B8091D4029091D502B0E0A0E0A7
:100F600084179507A607B70708F074C210E08091B0
:100F7000D202181758F4E091CE02F091CF02E10F9F
:100F8000F11D62E0808117DB1F5FF1CF712C809132
:100F9000D302781608F05FC0072D10E0E091D00270
:100FA000F091D102E00FF11F61E0808104DBE0915C
:100FB000D002F091D102E00FF11F60E08081CEDA23
:100FC00081E090E0A0E0B0E0072C04C0880F991FFA
:100FD000AA1FBB1F0A94D2F75C017C01E094F09435
:100FE000512C8091D202581608F5852C912CE09155
:100FF000CE02F091CF02E80DF91D808187DA9401CD
:101000002C5F3F4FF901EE0FFF1FE459FD4F892B75
:1010100041F4808191818A299B2991838083539413
:10102000E0CF808191818E219F21F7CFE091D00286
:10103000F091D102E00FF11F61E080818FDA8091A1
:10104000D0029091D102080F191F60E0F801808151
:10105000B2DA73949CCF9CE6E92E92E0F92E8701D8
:10106000F801878D90A1892B31F4148E2FEF3FEF7B
:10107000368F258F11A20A5F1F4F88EA92E08017F2
:10108000910771F7912C8091D202981608F051C007
:10109000812CA92CB12CAA0CBB1CF501EC58FD4FDE
:1010A0005F012091D302821608F041C0F5016081F2
:1010B0007181082C02C0769567950A94E2F7929E9A
:1010C00090011124280D311DECE6F2E080E0458D01
:1010D000568D2417350709F486C28F5F36968A30FD
:1010E000B1F760FF22C0ECE6F2E090E080E0448DD2
:1010F000411116C0E091CC02F091CD02E20FF31F36
:101100004081489EF001499EF00D1124E459FD4FA5
:10111000448F368F258F10A2178E61E022D905C02B
:10112000019636968A30910511F78394BACF93943D
:10113000AACF80E0F70191A19111892FF6E0EF0E7F
:10114000F11C0E151F05B1F79FB7F8944091680286
:101150005091690260916A0270916B029FBF409347
:10116000C8025093C9026093CA027093CB028823CD
:1011700009F470C180918D02882309F46BC100913C
:101180008B0210918C020130110509F063C1F090BF
:101190008802F092620221E4F21609F461C18091A2
:1011A0005E0290915F02181619060CF068C033E2D7
:1011B000F31222C080915A0290915B0201969093A3
:1011C0005B0280935A020091580210915902083133
:1011D00011050CF04FC18130910509F05EC19DDB16
:1011E000109357020093560210925902109258021F
:1011F000D0925F02C0925E0280915E0290915F0287
:10120000019779F460E080E01EDC8EE292E0E9DA9A
:101210006AE38BED92E025DC8091580290915902AF
:1012200025DC8091620290ED980F9A3098F44091FD
:10123000580250915902649E9001659E300D112410
:10124000082E000C990BC097820F931F90935902A0
:101250008093580280915E0290915F02029779F428
:1012600060E080E0F0DB89E392E0BBDA6AE38BEDDB
:1012700092E0F7DB8091580290915902F7DB1091D0
:101280006202123449F449DBD0935302C0935202F4
:10129000D0935D02C0935C02809152029091530200
:1012A000181619060CF067C0133211F580915A0216
:1012B00090915B02019690935B0280935A02009199
:1012C000580210915902093111050CF010C18130FA
:1012D000910509F01FC121DB1093510200935002C8
:1012E0001092590210925802D0925302C0925202A8
:1012F0008091520290915302019779F460E080E06E
:10130000A2DB8EE292E06DDA6AE38BED92E0A9DB7C
:101310008091580290915902A9DB8091620290ED70
:10132000980F9A3098F44091580250915902649E57
:101330009001659E300D1124082E000C990BC0976A
:10134000820F931F9093590280935802809152020A
:1013500090915302029779F460E080E074DB89E3B6
:1013600092E03FDA6AE38BED92E07BDB80915802FA
:10137000909159027BDBF090620283E4F81201C184
:1013800000915C0210915D020F5F1F4F10935D0290
:1013900000935C020130110509F0E6C0BEDA10933B
:1013A0004D0200934C0211E0EAE2FE1210E001E06F
:1013B00080915E0290915F02181619060CF000E011
:1013C000012391F010925D0210925C02A6DA109255
:1013D0005F0210925E02109259021092580210920F
:1013E0005B0210925A02102F809152029091530288
:1013F00018161906DCF41123C9F010925D02109240
:101400005C02109251021092500210924F02109200
:101410004E0283DA10925302109252021092590235
:101420001092580210925B0210925A0280915C0254
:1014300090915D02019739F4112329F010925D0219
:1014400010925C026ADA2114310409F425CD0E945D
:1014500000001CCD1092D80210926202F12C9FCE97
:101460005CDA10935F0200935E0210935D020093BA
:101470005C0295CE8130910569F410925902109268
:10148000580290935F0280935E0210925B0210926A
:101490005A02B2CE0C331105CCF4029709F0ACCE4F
:1014A0003CDA1093550200935402109259021092A4
:1014B000580210925F0210925E0210925B0210922C
:1014C0005A0210925D0210925C0296CE8230910513
:1014D00009F092CE109259021092580290935F0236
:1014E00080935E02D0935B02C0935A0285CE813016
:1014F000910569F410925902109258029093530288
:101500008093520210925B0210925A02F1CE0C3379
:101510001105CCF4029709F0EBCEFFD910934F02DE
:1015200000934E02109259021092580210925302E8
:101530001092520210925B0210925A0210925D02B7
:1015400010925C02D5CE8230910509F0D1CE109276
:101550005902109258029093530280935202D093F2
:101560005B02C0935A02C4CE0230110539F5D5D9B9
:1015700010925D0210925C0210924D0210924C0289
:1015800012CF94E4F9120FCF80914A0290914B024E
:10159000019769F410924D0210924C0210924B0286
:1015A00010924A02BAD910925D0210925C028091A8
:1015B0005C0290915D028130910539F011E0FAE210
:1015C000FF1609F411CF10E00FCFD0924D02C09258
:1015D0004C0290934B0280934A029FD910925D0275
:1015E00010925C02E0CE617099CD1092DE021092F2
:1015F000DD0286E292E09093DC028093DB0280E4DD
:101600008093DF028FE38093E0028EE38093E10218
:101610008AE38093E2028BE38093E3028CE380937E
:10162000E4028DE38093E5021092E6021092E70255
:101630001092E8021092E9021092EA0281E074D955
:1016400010926E0210927202109271021092730246
:101650008CE192E090936D0280936C02E8E8F2E0F6
:1016600084EC92E0108214821382158236968E17D3
:101670009F07C1F784E092E09093CF028093CE025F
:1016800080E092E09093D1028093D00284E0809336
:10169000D2028093D30288E092E09093CD028093AF
:1016A000CC028AE090E09093D5028093D40284EF3C
:1016B00091E09093D7028093D6021092DA021092B2
:1016C000D9021092C8021092C9021092CA02109256
:1016D000CB021092D8020895A1E21A2EAA1BBB1BBE
:1016E000FD010DC0AA1FBB1FEE1FFF1FA217B307EE
:1016F000E407F50720F0A21BB30BE40BF50B661F04
:10170000771F881F991F1A9469F7609570958095C7
:1017100090959B01AC01BD01CF010895EE0FFF1F15
:10172000881F8BBF0790F691E02D1994F894FFCF96
:101730002D2C2B2A31302F2E313233413435364285
:10174000373839432A302344000000006C036F030C
:1017500072030000000031057403A203A103456E6B
:1017600074657220686F757200456E746572206DC5
:08177000696E757465730000D9
:00000001FF
