:1000000001C100001EC100001CC100001AC1000097
:1000100018C1000016C1000014C1000012C1000088
:1000200010C100000EC100000CC100000AC1000098
:1000300008C1000006C1000004C1000002C10000A8
:1000400000C10000FEC00000FCC00000FAC00000BB
:10005000F8C000002DC20000F4C00000DFC10000A5
:10006000F0C00000EEC00000ECC00000EAC00000DC
:10007000E8C00000E6C00000E4C00000E2C00000EC
:10008000E0C00000DEC00000DCC00000DAC00000FC
:10009000D8C00000D6C00000D4C00000D2C000000C
:1000A000D0C00000CEC00000CCC00000CAC000001C
:1000B000C8C00000C6C00000C4C00000C2C000002C
:1000C000C0C00000BEC00000BCC00000BAC000003C
:1000D000B8C00000B6C00000B4C00000B2C000004C
:1000E000B0C0000000002100240027002A002D00DD
:1000F0003000330001010000040107010A01000083
:100100002200250028002B002E00310034000201BF
:100110000000050108010B0100002000230026005B
:1001200029002C002F00320000010000030106010D
:10013000090105050505070508080808020202026D
:100140000A0A080804040404010101010101010173
:100150000303030303030303040707070C0C0C0C3E
:100160000C0C0C0C02020202060606060606060627
:100170000B0B0B0B0B0B0B0B0102102020080810B4
:100180002040102040800201020108040201010207
:1001900004081020408080402010080402018004E0
:1001A000020180402010080402010804020101023B
:1001B0000408102040800102040810204080000044
:1001C0000A0B02090C0D0E080703040100000000D1
:1001D000000000000000000000000000000000001F
:1001E00000000000000000000000121110000000DC
:1001F00000000000000000000000000000000000FF
:100200000000000011241FBECFEFD1E2DEBFCDBF42
:1002100000E00CBF12E0A0E0B2E0E0E4FCE000E0AF
:100220000BBF02C007900D92AE30B107D9F722E0A4
:10023000AEE0B2E001C01D92A833B207E1F71BD2D5
:10024000FDC4DECE8150823108F059C0E82FF0E0C5
:100250008827E35DFE4F8F4FD5C44D0151013F010B
:10026000450149017F0154015A015E0164016801A1
:100270006C01720176017F017A0180018401809115
:1002800080008F77809380000895809180008F7D1B
:10029000F9CF80918000877FF5CF84B58F7784BDBB
:1002A000089584B58F7DFBCF8091B0008F778093C8
:1002B000B00008958091B0008F7DF9CF80919000BB
:1002C0008F77809390000895809190008F7DF9CF73
:1002D00080919000877FF5CF8091A0008F778093E9
:1002E000A00008958091A0008F7DF9CF8091A0009B
:1002F000877FF5CF809120018F778093200108952B
:10030000809120018F7DF9CF80912001877FF5CFEB
:10031000CF93DF93282F30E0F901E254FE4F849110
:10032000F901E858FE4FD491F901EE5CFE4FC491FB
:10033000CC2399F0811186DFEC2FF0E0EE0FFF1F48
:10034000E85EFE4FA591B491EC91ED2381E090E041
:1003500009F480E0DF91CF91089580E090E0FACF3A
:100360001F93CF93DF93282F30E0F901E254FE4F23
:100370008491F901E858FE4FD491F901EE5CFE4FEB
:10038000C491CC23A1F0162F81115CDFEC2FF0E09B
:10039000EE0FFF1FE250FF4FA591B4918FB7F89475
:1003A000EC91111108C0D095DE23DC938FBFDF9153
:1003B000CF911F910895DE2BF8CFCF93DF9390E07C
:1003C000FC01E858FE4F24918E5C9E4FFC01849105
:1003D0008823D1F090E0880F991FFC01EC51FF4F6A
:1003E000A591B491FC01E250FF4FC591D4916111E8
:1003F0000EC09FB7F8948C91E22FE0958E238C93DA
:100400002881E223E8839FBFDF91CF9108958FB7C2
:10041000F894EC91E22BEC938FBFF6CF1F920F92E2
:100420000FB60F9211242F933F938F939F93AF9307
:10043000BF938091340290913502A0913602B09121
:1004400037023091330223E0230F2D3758F5019600
:10045000A11DB11D20933302809334029093350285
:10046000A0933602B093370280912F029091300210
:10047000A0913102B09132020196A11DB11D80936D
:100480002F0290933002A0933102B0933202BF91B9
:10049000AF919F918F913F912F910F900FBE0F9031
:1004A0001F90189526E8230F0296A11DB11DD2CFEB
:1004B0001F920F920FB60F9211240BB60F922F932B
:1004C0003F934F935F936F937F938F939F93AF93DC
:1004D000BF93EF93FF93809110028F5F8093100280
:1004E00020911102309112021216130634F4215099
:1004F000310930931202209311028D3209F081C02C
:100500001092100280912D0290912E0201968C3350
:10051000910509F489C090932E0280932D02809159
:100520001D0290911E0281309105F1F440911B0251
:1005300050911C0220912702309128024217530744
:1005400099F44091150250911602209121023091A8
:1005500022024217530741F490930F0280930E0238
:1005600010921E0210921D028091110290911202AF
:10057000892B09F046C080910E0290910F020497DA
:1005800039F460E082E2ECDE10920F0210920E026B
:1005900080910E0290910F02039779F461E082E25C
:1005A000DFDE84E090E090930F0280930E028EE1F4
:1005B00090E0909312028093110280910E0290912C
:1005C0000F02029749F460E082E2CADE83E090E025
:1005D00090930F0280930E0280910E0290910F0271
:1005E000019779F461E082E2BBDE82E090E09093D3
:1005F0000F0280930E028EE190E09093120280939E
:100600001102FF91EF91BF91AF919F918F917F91D7
:100610006F915F914F913F912F910F900BBE0F9073
:100620000FBE0F901F90189510922E0210922D025F
:10063000809127029091280201968C33910529F030
:1006400090932802809327026ACF1092280210927A
:100650002702809121029091220201968831910512
:1006600029F0909322028093210259CF1092220206
:100670001092210254CF789484B5826084BD84B5F1
:10068000816084BD85B5826085BD85B5816085BD8D
:1006900080916E00816080936E0010928100809145
:1006A00081008260809381008091810081608093CD
:1006B0008100809180008160809380008091B100F2
:1006C00084608093B1008091B00081608093B0001D
:1006D000809191008260809391008091910081606F
:1006E0008093910080919000816080939000809130
:1006F000A10082608093A1008091A100816080931D
:10070000A1008091A00081608093A00080912101D0
:100710008260809321018091210181608093210179
:100720008091200181608093200180917A00846013
:1007300080937A0080917A00826080937A00809121
:100740007A00816080937A0080917A00806880933B
:100750007A001092C100F89414BC15BC80EF87BDDC
:1007600085B5886085BD85B5816085BD85B58460AA
:1007700085BD80916E00826080936E00789460E009
:1007800082E11BDE61E082E1EBDD60E083E115DE0A
:1007900061E083E1E5DD60E084E10FDE61E084E1BA
:1007A000DFDD60E085E109DE61E085E1D9DD61E062
:1007B00083E303DE61E083E3D3DD61E082E3FDDD1B
:1007C00061E082E3CDDD61E08AE0F7DD61E08AE0AF
:1007D000C7DD61E08BE0F1DD61E08BE0C1DD61E070
:1007E0008CE0EBDD61E08CE0BBDD61E08DE0E5DD20
:1007F00061E08DE0B5DD61E086E1DFDD61E086E1AD
:10080000AFDD61E087E1D9DD61E087E1A9DD61E08D
:1008100088E1D3DD61E088E1A3DD61E089E1CDDD40
:1008200061E089E19DDD61E08AE1C7DD61E08AE1A7
:1008300097DD61E08BE1C1DD61E08BE191DD61E09D
:100840008CE1BBDD61E08CE18BDD61E08DE1B5DD4C
:1008500061E08DE185DD61E082E2AFDDCAE0D0E0FC
:1008600088E8A82E90ECB92E20E0E22E20E0F22EAF
:1008700004E110E0CC24C394D12C8091000290912B
:100880000102019709F090C080912D0290912E02F3
:10089000BE01A5D170932C0260932B0290932A0283
:1008A000809329028091270290912802BE0197D15E
:1008B0007093260260932502909324028093230272
:1008C0008091210290912202BE0189D19093200251
:1008D00080931F026E5F7D4FFB01808182B961E0D2
:1008E00083E33EDD60E083E33BDDE0911F02F091B6
:1008F0002002EE5FFD4F808182B960E08DE130DD46
:1009000061E082E32DDD60E082E32ADDE0912502F3
:10091000F0912602EE5FFD4F808182B961E08AE0AE
:100920001FDD60E08AE01CDDE0912302F0912402EB
:10093000EE5FFD4F808182B960E08DE111DD61E005
:100940008BE00EDD60E08BE00BDDE0912B02F0919F
:100950002C02EE5FFD4F808182B961E08CE000DD0A
:1009600060E08CE0FDDC80911D0290911E02892BDD
:1009700071F4E0912902F0912A02EE5FFD4F80812F
:1009800082B961E08DE0ECDC60E08DE0E9DC809133
:100990001D0290911E02019739F4A2B861E08DE02A
:1009A000DFDC60E08DE0DCDC8091000290910102F0
:1009B000029709F061C080911B0290911C02BE0158
:1009C0000ED170931A0260931902909318028093CB
:1009D00017028091150290911602BE0100D19093EA
:1009E0001402809313026E5F7D4FFB01808182B9F8
:1009F00061E083E3B5DC60E083E3B2DCE091130205
:100A0000F0911402EE5FFD4F808182B960E08DE1CC
:100A1000A7DC61E082E3A4DC60E082E3A1DCE0919A
:100A20001902F0911A02EE5FFD4F808182B961E0F8
:100A30008AE096DC60E08AE093DCE0911702F091B6
:100A40001802EE5FFD4F808182B960E08DE188DCA5
:100A500061E08BE085DC60E08BE082DCB2B861E0D5
:100A60008CE07EDC60E08CE07BDCB2B861E08DE0A5
:100A700077DC60E08DE074DC8091110290911202CD
:100A8000892B09F06CC082E143DC892BC9F4809189
:100A90000002909101028130910509F06CC08091B3
:100AA00021029091220201968831910509F45EC0DD
:100AB000909322028093210210931202009311025C
:100AC00083E126DC892BC9F4809100029091010218
:100AD0008130910509F069C0809127029091280228
:100AE00001968C33910509F45BC0909328028093A2
:100AF0002702109312020093110284E109DC892B72
:100B000089F4809100029091010201968330910551
:100B100009F460C0909301028093000210931202C6
:100B20000093110285E1F4DB892BC9F48091000266
:100B300090910102029799F480911D0290911E02FA
:100B4000019690931E0280931D021093120200934F
:100B50001102029721F410921E0210921D02E1145C
:100B6000F10409F48ACE0E94000087CE109222027E
:100B700010922102A1CF029709F09ECF8091150219
:100B80009091160201968831910529F090931602F2
:100B90008093150291CF10921602109215028CCFFD
:100BA0001092280210922702A4CF029709F0A1CF39
:100BB00080911B0290911C0201968C33910529F0C3
:100BC00090931C0280931B0294CF10921C021092EF
:100BD0001B028FCFD0920102C09200029FCF97FBE1
:100BE000072E16F4009406D077FD08D013D007FC2A
:100BF00005D03EF4909581959F4F0895709561952D
:100C00007F4F0895EE0FFF1F881F8BBF0790F6914F
:100C1000E02D1994AA1BBB1B51E107C0AA1FBB1FE3
:100C2000A617B70710F0A61BB70B881F991F5A9578
:100C3000A9F780959095BC01CD010895F894FFCF58
:0E0C40000100C0F9A4B0999282F8809088005B
:00000001FF
